{
  "_format": "hh-sol-artifact-1",
  "contractName": "MetaEstateRents",
  "sourceName": "contracts/MetaEstateRentals.sol",
  "abi": [
    {
      "inputs": [
        {
          "internalType": "string",
          "name": "_name",
          "type": "string"
        },
        {
          "internalType": "string",
          "name": "_symbol",
          "type": "string"
        }
      ],
      "stateMutability": "nonpayable",
      "type": "constructor"
    },
    {
      "anonymous": false,
      "inputs": [
        {
          "indexed": true,
          "internalType": "address",
          "name": "owner",
          "type": "address"
        },
        {
          "indexed": true,
          "internalType": "address",
          "name": "approved",
          "type": "address"
        },
        {
          "indexed": true,
          "internalType": "uint256",
          "name": "tokenId",
          "type": "uint256"
        }
      ],
      "name": "Approval",
      "type": "event"
    },
    {
      "anonymous": false,
      "inputs": [
        {
          "indexed": true,
          "internalType": "address",
          "name": "owner",
          "type": "address"
        },
        {
          "indexed": true,
          "internalType": "address",
          "name": "operator",
          "type": "address"
        },
        {
          "indexed": false,
          "internalType": "bool",
          "name": "approved",
          "type": "bool"
        }
      ],
      "name": "ApprovalForAll",
      "type": "event"
    },
    {
      "anonymous": false,
      "inputs": [
        {
          "indexed": true,
          "internalType": "address",
          "name": "previousOwner",
          "type": "address"
        },
        {
          "indexed": true,
          "internalType": "address",
          "name": "newOwner",
          "type": "address"
        }
      ],
      "name": "OwnershipTransferred",
      "type": "event"
    },
    {
      "anonymous": false,
      "inputs": [
        {
          "indexed": true,
          "internalType": "address",
          "name": "from",
          "type": "address"
        },
        {
          "indexed": true,
          "internalType": "address",
          "name": "to",
          "type": "address"
        },
        {
          "indexed": true,
          "internalType": "uint256",
          "name": "tokenId",
          "type": "uint256"
        }
      ],
      "name": "Transfer",
      "type": "event"
    },
    {
      "anonymous": false,
      "inputs": [
        {
          "indexed": true,
          "internalType": "uint256",
          "name": "tokenId",
          "type": "uint256"
        },
        {
          "indexed": true,
          "internalType": "address",
          "name": "user",
          "type": "address"
        },
        {
          "indexed": false,
          "internalType": "uint64",
          "name": "expires",
          "type": "uint64"
        }
      ],
      "name": "UpdateUser",
      "type": "event"
    },
    {
      "inputs": [
        {
          "internalType": "address",
          "name": "to",
          "type": "address"
        },
        {
          "internalType": "uint256",
          "name": "tokenId",
          "type": "uint256"
        }
      ],
      "name": "approve",
      "outputs": [],
      "stateMutability": "nonpayable",
      "type": "function"
    },
    {
      "inputs": [
        {
          "internalType": "address",
          "name": "owner",
          "type": "address"
        }
      ],
      "name": "balanceOf",
      "outputs": [
        {
          "internalType": "uint256",
          "name": "",
          "type": "uint256"
        }
      ],
      "stateMutability": "view",
      "type": "function"
    },
    {
      "inputs": [],
      "name": "erc20Contract",
      "outputs": [
        {
          "internalType": "address",
          "name": "",
          "type": "address"
        }
      ],
      "stateMutability": "view",
      "type": "function"
    },
    {
      "inputs": [
        {
          "internalType": "uint256",
          "name": "tokenId",
          "type": "uint256"
        }
      ],
      "name": "getApproved",
      "outputs": [
        {
          "internalType": "address",
          "name": "",
          "type": "address"
        }
      ],
      "stateMutability": "view",
      "type": "function"
    },
    {
      "inputs": [
        {
          "internalType": "address",
          "name": "owner",
          "type": "address"
        },
        {
          "internalType": "address",
          "name": "operator",
          "type": "address"
        }
      ],
      "name": "isApprovedForAll",
      "outputs": [
        {
          "internalType": "bool",
          "name": "",
          "type": "bool"
        }
      ],
      "stateMutability": "view",
      "type": "function"
    },
    {
      "inputs": [
        {
          "internalType": "string",
          "name": "_tokenURI",
          "type": "string"
        }
      ],
      "name": "makeMetaEstateToken",
      "outputs": [],
      "stateMutability": "nonpayable",
      "type": "function"
    },
    {
      "inputs": [],
      "name": "maxMonthlyRent",
      "outputs": [
        {
          "internalType": "uint256",
          "name": "",
          "type": "uint256"
        }
      ],
      "stateMutability": "view",
      "type": "function"
    },
    {
      "inputs": [],
      "name": "name",
      "outputs": [
        {
          "internalType": "string",
          "name": "",
          "type": "string"
        }
      ],
      "stateMutability": "view",
      "type": "function"
    },
    {
      "inputs": [],
      "name": "owner",
      "outputs": [
        {
          "internalType": "address",
          "name": "",
          "type": "address"
        }
      ],
      "stateMutability": "view",
      "type": "function"
    },
    {
      "inputs": [
        {
          "internalType": "uint256",
          "name": "tokenId",
          "type": "uint256"
        }
      ],
      "name": "ownerOf",
      "outputs": [
        {
          "internalType": "address",
          "name": "",
          "type": "address"
        }
      ],
      "stateMutability": "view",
      "type": "function"
    },
    {
      "inputs": [],
      "name": "renounceOwnership",
      "outputs": [],
      "stateMutability": "nonpayable",
      "type": "function"
    },
    {
      "inputs": [],
      "name": "rentFee",
      "outputs": [
        {
          "internalType": "uint256",
          "name": "",
          "type": "uint256"
        }
      ],
      "stateMutability": "view",
      "type": "function"
    },
    {
      "inputs": [],
      "name": "rentFeeNative",
      "outputs": [
        {
          "internalType": "uint256",
          "name": "",
          "type": "uint256"
        }
      ],
      "stateMutability": "view",
      "type": "function"
    },
    {
      "inputs": [
        {
          "internalType": "address",
          "name": "from",
          "type": "address"
        },
        {
          "internalType": "address",
          "name": "to",
          "type": "address"
        },
        {
          "internalType": "uint256",
          "name": "tokenId",
          "type": "uint256"
        }
      ],
      "name": "safeTransferFrom",
      "outputs": [],
      "stateMutability": "nonpayable",
      "type": "function"
    },
    {
      "inputs": [
        {
          "internalType": "address",
          "name": "from",
          "type": "address"
        },
        {
          "internalType": "address",
          "name": "to",
          "type": "address"
        },
        {
          "internalType": "uint256",
          "name": "tokenId",
          "type": "uint256"
        },
        {
          "internalType": "bytes",
          "name": "data",
          "type": "bytes"
        }
      ],
      "name": "safeTransferFrom",
      "outputs": [],
      "stateMutability": "nonpayable",
      "type": "function"
    },
    {
      "inputs": [
        {
          "internalType": "address",
          "name": "operator",
          "type": "address"
        },
        {
          "internalType": "bool",
          "name": "approved",
          "type": "bool"
        }
      ],
      "name": "setApprovalForAll",
      "outputs": [],
      "stateMutability": "nonpayable",
      "type": "function"
    },
    {
      "inputs": [
        {
          "internalType": "uint256",
          "name": "newRentFee",
          "type": "uint256"
        },
        {
          "internalType": "uint256",
          "name": "newRentFeeNative",
          "type": "uint256"
        },
        {
          "internalType": "uint256",
          "name": "newMaxMonthlyRent",
          "type": "uint256"
        }
      ],
      "name": "setFeesMaxMonth",
      "outputs": [],
      "stateMutability": "nonpayable",
      "type": "function"
    },
    {
      "inputs": [
        {
          "internalType": "address payable",
          "name": "newTreasuryAddress",
          "type": "address"
        }
      ],
      "name": "setTreasuryAddress",
      "outputs": [],
      "stateMutability": "nonpayable",
      "type": "function"
    },
    {
      "inputs": [
        {
          "internalType": "address payable",
          "name": "newUSDAddress",
          "type": "address"
        }
      ],
      "name": "setUSDAddress",
      "outputs": [],
      "stateMutability": "nonpayable",
      "type": "function"
    },
    {
      "inputs": [
        {
          "internalType": "uint256",
          "name": "tokenId",
          "type": "uint256"
        },
        {
          "internalType": "address",
          "name": "user",
          "type": "address"
        },
        {
          "internalType": "uint64",
          "name": "expires",
          "type": "uint64"
        }
      ],
      "name": "setUser",
      "outputs": [],
      "stateMutability": "nonpayable",
      "type": "function"
    },
    {
      "inputs": [
        {
          "internalType": "uint256",
          "name": "tokenId",
          "type": "uint256"
        },
        {
          "internalType": "address",
          "name": "user",
          "type": "address"
        },
        {
          "internalType": "uint64",
          "name": "expires",
          "type": "uint64"
        }
      ],
      "name": "setUserNative",
      "outputs": [],
      "stateMutability": "payable",
      "type": "function"
    },
    {
      "inputs": [
        {
          "internalType": "bytes4",
          "name": "interfaceId",
          "type": "bytes4"
        }
      ],
      "name": "supportsInterface",
      "outputs": [
        {
          "internalType": "bool",
          "name": "",
          "type": "bool"
        }
      ],
      "stateMutability": "view",
      "type": "function"
    },
    {
      "inputs": [],
      "name": "symbol",
      "outputs": [
        {
          "internalType": "string",
          "name": "",
          "type": "string"
        }
      ],
      "stateMutability": "view",
      "type": "function"
    },
    {
      "inputs": [
        {
          "internalType": "uint256",
          "name": "tokenId",
          "type": "uint256"
        }
      ],
      "name": "tokenURI",
      "outputs": [
        {
          "internalType": "string",
          "name": "",
          "type": "string"
        }
      ],
      "stateMutability": "view",
      "type": "function"
    },
    {
      "inputs": [],
      "name": "totalSupply",
      "outputs": [
        {
          "internalType": "uint256",
          "name": "",
          "type": "uint256"
        }
      ],
      "stateMutability": "view",
      "type": "function"
    },
    {
      "inputs": [
        {
          "internalType": "address",
          "name": "from",
          "type": "address"
        },
        {
          "internalType": "address",
          "name": "to",
          "type": "address"
        },
        {
          "internalType": "uint256",
          "name": "tokenId",
          "type": "uint256"
        }
      ],
      "name": "transferFrom",
      "outputs": [],
      "stateMutability": "nonpayable",
      "type": "function"
    },
    {
      "inputs": [
        {
          "internalType": "address",
          "name": "newOwner",
          "type": "address"
        }
      ],
      "name": "transferOwnership",
      "outputs": [],
      "stateMutability": "nonpayable",
      "type": "function"
    },
    {
      "inputs": [],
      "name": "treasury",
      "outputs": [
        {
          "internalType": "address payable",
          "name": "",
          "type": "address"
        }
      ],
      "stateMutability": "view",
      "type": "function"
    },
    {
      "inputs": [
        {
          "internalType": "uint256",
          "name": "tokenId",
          "type": "uint256"
        }
      ],
      "name": "userExpires",
      "outputs": [
        {
          "internalType": "uint256",
          "name": "",
          "type": "uint256"
        }
      ],
      "stateMutability": "view",
      "type": "function"
    },
    {
      "inputs": [
        {
          "internalType": "uint256",
          "name": "tokenId",
          "type": "uint256"
        }
      ],
      "name": "userOf",
      "outputs": [
        {
          "internalType": "address",
          "name": "",
          "type": "address"
        }
      ],
      "stateMutability": "view",
      "type": "function"
    },
    {
      "inputs": [],
      "name": "withdraw",
      "outputs": [],
      "stateMutability": "nonpayable",
      "type": "function"
    },
    {
      "inputs": [],
      "name": "withdrawERC20",
      "outputs": [],
      "stateMutability": "nonpayable",
      "type": "function"
    }
  ],
  "bytecode": "0x6080604052600e80546001600160a01b031916737ea9114092ec4379ffdf51ba6b72c71265f33e961790553480156200003757600080fd5b5060405162002c6138038062002c618339810160408190526200005a916200027c565b8151829082906200007390600090602085019062000109565b5080516200008990600190602084019062000109565b505050620000a6620000a0620000b360201b60201c565b620000b7565b5050600160085562000323565b3390565b600780546001600160a01b038381166001600160a01b0319831681179093556040519116919082907f8be0079c531659141344cd1fd0a4f28419497f9722a3daafe3b4186f6b6457e090600090a35050565b8280546200011790620002e6565b90600052602060002090601f0160209004810192826200013b576000855562000186565b82601f106200015657805160ff191683800117855562000186565b8280016001018555821562000186579182015b828111156200018657825182559160200191906001019062000169565b506200019492915062000198565b5090565b5b8082111562000194576000815560010162000199565b634e487b7160e01b600052604160045260246000fd5b600082601f830112620001d757600080fd5b81516001600160401b0380821115620001f457620001f4620001af565b604051601f8301601f19908116603f011681019082821181831017156200021f576200021f620001af565b816040528381526020925086838588010111156200023c57600080fd5b600091505b8382101562000260578582018301518183018401529082019062000241565b83821115620002725760008385830101525b9695505050505050565b600080604083850312156200029057600080fd5b82516001600160401b0380821115620002a857600080fd5b620002b686838701620001c5565b93506020850151915080821115620002cd57600080fd5b50620002dc85828601620001c5565b9150509250929050565b600181811c90821680620002fb57607f821691505b602082108114156200031d57634e487b7160e01b600052602260045260246000fd5b50919050565b61292e80620003336000396000f3fe6080604052600436106101e35760003560e01c806381e8525b11610102578063b88d4fde11610095578063e030565e11610064578063e030565e1461054e578063e985e9c51461056e578063f2fde38b146105b7578063f418ae6d146105d757600080fd5b8063b88d4fde146104d8578063bf2b23ea146104f8578063c2f1f14a1461050e578063c87b56dd1461052e57600080fd5b806395d89b41116100d157806395d89b4114610463578063a22cb46514610478578063a8f6c91314610498578063b7f79f4c146104b857600080fd5b806381e8525b146103fc5780638aed64cd146104125780638da5cb5b146104255780638fc88c481461044357600080fd5b806342842e0e1161017a5780636352211e116101495780636352211e146103875780636605bfda146103a757806370a08231146103c7578063715018a6146103e757600080fd5b806342842e0e1461030757806349671347146103275780634ee5c2f51461034757806361d027b31461036757600080fd5b806318160ddd116101b657806318160ddd1461029957806323b872dd146102bd5780632ed6d5e8146102dd5780633ccfd60b146102f257600080fd5b806301ffc9a7146101e857806306fdde031461021d578063081812fc1461023f578063095ea7b314610277575b600080fd5b3480156101f457600080fd5b5061020861020336600461229a565b6105ed565b60405190151581526020015b60405180910390f35b34801561022957600080fd5b50610232610618565b604051610214919061230f565b34801561024b57600080fd5b5061025f61025a366004612322565b6106aa565b6040516001600160a01b039091168152602001610214565b34801561028357600080fd5b50610297610292366004612350565b6106d1565b005b3480156102a557600080fd5b506102af600d5481565b604051908152602001610214565b3480156102c957600080fd5b506102976102d836600461237c565b6107ec565b3480156102e957600080fd5b5061029761081d565b3480156102fe57600080fd5b50610297610ad3565b34801561031357600080fd5b5061029761032236600461237c565b610c79565b34801561033357600080fd5b506102976103423660046123bd565b610c94565b34801561035357600080fd5b506102976103623660046123e9565b610caa565b34801561037357600080fd5b50600e5461025f906001600160a01b031681565b34801561039357600080fd5b5061025f6103a2366004612322565b610cd4565b3480156103b357600080fd5b506102976103c23660046123e9565b610d34565b3480156103d357600080fd5b506102af6103e23660046123e9565b610d80565b3480156103f357600080fd5b50610297610e06565b34801561040857600080fd5b506102af600a5481565b610297610420366004612406565b610e18565b34801561043157600080fd5b506007546001600160a01b031661025f565b34801561044f57600080fd5b506102af61045e366004612322565b611060565b34801561046f57600080fd5b506102326110b1565b34801561048457600080fd5b50610297610493366004612462565b6110c0565b3480156104a457600080fd5b5060095461025f906001600160a01b031681565b3480156104c457600080fd5b506102976104d3366004612526565b6110cf565b3480156104e457600080fd5b506102976104f336600461256e565b611169565b34801561050457600080fd5b506102af600b5481565b34801561051a57600080fd5b5061025f610529366004612322565b6111a1565b34801561053a57600080fd5b50610232610549366004612322565b6111e3565b34801561055a57600080fd5b50610297610569366004612406565b6111ee565b34801561057a57600080fd5b506102086105893660046125ed565b6001600160a01b03918216600090815260056020908152604080832093909416825291909152205460ff1690565b3480156105c357600080fd5b506102976105d23660046123e9565b61150a565b3480156105e357600080fd5b506102af600c5481565b60006001600160e01b03198216632b424ad760e21b1480610612575061061282611580565b92915050565b6060600080546106279061261b565b80601f01602080910402602001604051908101604052809291908181526020018280546106539061261b565b80156106a05780601f10610675576101008083540402835291602001916106a0565b820191906000526020600020905b81548152906001019060200180831161068357829003601f168201915b5050505050905090565b60006106b5826115d0565b506000908152600460205260409020546001600160a01b031690565b60006106dc82610cd4565b9050806001600160a01b0316836001600160a01b0316141561074f5760405162461bcd60e51b815260206004820152602160248201527f4552433732313a20617070726f76616c20746f2063757272656e74206f776e656044820152603960f91b60648201526084015b60405180910390fd5b336001600160a01b038216148061076b575061076b8133610589565b6107dd5760405162461bcd60e51b815260206004820152603d60248201527f4552433732313a20617070726f76652063616c6c6572206973206e6f7420746f60448201527f6b656e206f776e6572206f7220617070726f76656420666f7220616c6c0000006064820152608401610746565b6107e7838361162f565b505050565b6107f6338261169d565b6108125760405162461bcd60e51b815260040161074690612656565b6107e783838361171c565b61082561188d565b600e546001600160a01b031633148061084857506007546001600160a01b031633145b6108645760405162461bcd60e51b8152600401610746906126a3565b6009546040516370a0823160e01b81523060048201526001600160a01b039091169060009082906370a082319060240160206040518083038186803b1580156108ac57600080fd5b505afa1580156108c0573d6000803e3d6000fd5b505050506040513d601f19601f820116820180604052508101906108e491906126cb565b905060006108f36064836126fa565b6108fe90600161271c565b9050600061090c828461273b565b600e5460405163a9059cbb60e01b81526001600160a01b039182166004820152602481018590529192506000919086169063a9059cbb90604401602060405180830381600087803b15801561096057600080fd5b505af1158015610974573d6000803e3d6000fd5b505050506040513d601f19601f820116820180604052508101906109989190612752565b90506000856001600160a01b031663a9059cbb6109bd6007546001600160a01b031690565b6040516001600160e01b031960e084901b1681526001600160a01b03909116600482015260248101869052604401602060405180830381600087803b158015610a0557600080fd5b505af1158015610a19573d6000803e3d6000fd5b505050506040513d601f19601f82011682018060405250810190610a3d9190612752565b905081610a805760405162461bcd60e51b8152602060048201526011602482015270151c985b9cd9995c880c4819985a5b1959607a1b6044820152606401610746565b80610ac15760405162461bcd60e51b8152602060048201526011602482015270151c985b9cd9995c880c8819985a5b1959607a1b6044820152606401610746565b505050505050610ad16001600855565b565b610adb61188d565b600e546001600160a01b0316331480610afe57506007546001600160a01b031633145b610b1a5760405162461bcd60e51b8152600401610746906126a3565b600e546000906001600160a01b0316610b346064476126fa565b610b3f90600161271c565b604051600081818185875af1925050503d8060008114610b7b576040519150601f19603f3d011682016040523d82523d6000602084013e610b80565b606091505b505090506000610b986007546001600160a01b031690565b6001600160a01b03164760405160006040518083038185875af1925050503d8060008114610be2576040519150601f19603f3d011682016040523d82523d6000602084013e610be7565b606091505b5050905081610c2c5760405162461bcd60e51b8152602060048201526011602482015270151c985b9cd9995c880c4819985a5b1959607a1b6044820152606401610746565b80610c6d5760405162461bcd60e51b8152602060048201526011602482015270151c985b9cd9995c880c8819985a5b1959607a1b6044820152606401610746565b5050610ad16001600855565b6107e783838360405180602001604052806000815250611169565b610c9c6118e7565b600b92909255600c55600a55565b610cb26118e7565b600980546001600160a01b0319166001600160a01b0392909216919091179055565b6000818152600260205260408120546001600160a01b0316806106125760405162461bcd60e51b8152602060048201526018602482015277115490cdcc8c4e881a5b9d985b1a59081d1bdad95b88125160421b6044820152606401610746565b600e546001600160a01b03163314610d5e5760405162461bcd60e51b8152600401610746906126a3565b600e80546001600160a01b0319166001600160a01b0392909216919091179055565b60006001600160a01b038216610dea5760405162461bcd60e51b815260206004820152602960248201527f4552433732313a2061646472657373207a65726f206973206e6f7420612076616044820152683634b21037bbb732b960b91b6064820152608401610746565b506001600160a01b031660009081526003602052604090205490565b610e0e6118e7565b610ad16000611941565b600a54816001600160401b03161115610e6c5760405162461bcd60e51b8152602060048201526016602482015275115e18d959591cc81b585e081cdd58881c195c9a5bd960521b6044820152606401610746565b34600c54826001600160401b0316610e84919061271c565b14610ee05760405162461bcd60e51b815260206004820152602660248201527f6e617469766520746f6b656e2076616c75652073656e74206973206e6f7420636044820152651bdc9c9958dd60d21b6064820152608401610746565b6007546001600160a01b0316610ef584610cd4565b6001600160a01b031614610f475760405162461bcd60e51b81526020600482015260196024820152781c1c9bdc195c9d1e481cdbdb190b0818d85b89dd081c995b9d603a1b6044820152606401610746565b6000610f568262278d0061276f565b6000858152600f60205260409020805491925042916001600160401b03808416600160a01b9092041610610fbd5760405162461bcd60e51b815260206004820152600e60248201526d185b1c9958591e481c995b9d195960921b6044820152606401610746565b80546001600160a01b0319166001600160a01b038616178155610fe0828461279e565b81546001600160401b0391909116600160a01b0267ffffffffffffffff60a01b199091161781556001600160a01b038516867f4e06b4e7000e659094299b3533b47b6aa8ad048e95e872d23d1f4ee55af89cfe61103d858761279e565b6040516001600160401b03909116815260200160405180910390a3505050505050565b6000818152600f602052604081205442600160a01b9091046001600160401b0316106110a957506000908152600f6020526040902054600160a01b90046001600160401b031690565b506000919050565b6060600180546106279061261b565b6110cb338383611993565b5050565b6110d761188d565b6110df6118e7565b33321461112e5760405162461bcd60e51b815260206004820152601960248201527f4e6f20636f6e7472616374207472616e73616374696f6e7321000000000000006044820152606401610746565b600d5461113b3382611a62565b6111458183611a7c565b6001600d600082825461115891906127c9565b909155505060016008555050565b50565b611173338361169d565b61118f5760405162461bcd60e51b815260040161074690612656565b61119b84848484611b16565b50505050565b6000818152600f602052604081205442600160a01b9091046001600160401b0316106110a957506000908152600f60205260409020546001600160a01b031690565b606061061282611b49565b600a54816001600160401b031611156112425760405162461bcd60e51b8152602060048201526016602482015275115e18d959591cc81b585e081cdd58881c195c9a5bd960521b6044820152606401610746565b6007546001600160a01b031661125784610cd4565b6001600160a01b0316146112a95760405162461bcd60e51b81526020600482015260196024820152781c1c9bdc195c9d1e481cdbdb190b0818d85b89dd081c995b9d603a1b6044820152606401610746565b6009546001600160a01b03166112f85760405162461bcd60e51b8152602060048201526014602482015273657263323020746f6b656e206e6f74207365742160601b6044820152606401610746565b600954600b546001600160a01b0390911690600090611321906001600160401b0385169061271c565b6040516323b872dd60e01b8152336004820152306024820152604481018290529091506000906001600160a01b038416906323b872dd90606401602060405180830381600087803b15801561137557600080fd5b505af1158015611389573d6000803e3d6000fd5b505050506040513d601f19601f820116820180604052508101906113ad9190612752565b9050806113ee5760405162461bcd60e51b815260206004820152600f60248201526e3330b4b632b2103a3930b739b332b960891b6044820152606401610746565b60006113fd8562278d0061276f565b6000888152600f60205260409020805491925042916001600160401b03808416600160a01b90920416106114645760405162461bcd60e51b815260206004820152600e60248201526d185b1c9958591e481c995b9d195960921b6044820152606401610746565b80546001600160a01b0319166001600160a01b038916178155611487828461279e565b81546001600160401b0391909116600160a01b0267ffffffffffffffff60a01b199091161781556001600160a01b038816897f4e06b4e7000e659094299b3533b47b6aa8ad048e95e872d23d1f4ee55af89cfe6114e4858761279e565b6040516001600160401b03909116815260200160405180910390a3505050505050505050565b6115126118e7565b6001600160a01b0381166115775760405162461bcd60e51b815260206004820152602660248201527f4f776e61626c653a206e6577206f776e657220697320746865207a65726f206160448201526564647265737360d01b6064820152608401610746565b61116681611941565b60006001600160e01b031982166380ac58cd60e01b14806115b157506001600160e01b03198216635b5e139f60e01b145b8061061257506301ffc9a760e01b6001600160e01b0319831614610612565b6000818152600260205260409020546001600160a01b03166111665760405162461bcd60e51b8152602060048201526018602482015277115490cdcc8c4e881a5b9d985b1a59081d1bdad95b88125160421b6044820152606401610746565b600081815260046020526040902080546001600160a01b0319166001600160a01b038416908117909155819061166482610cd4565b6001600160a01b03167f8c5be1e5ebec7d5bd14f71427d1e84f3dd0314c0f7b2291e5b200ac8c7c3b92560405160405180910390a45050565b6000806116a983610cd4565b9050806001600160a01b0316846001600160a01b031614806116f057506001600160a01b0380821660009081526005602090815260408083209388168352929052205460ff165b806117145750836001600160a01b0316611709846106aa565b6001600160a01b0316145b949350505050565b826001600160a01b031661172f82610cd4565b6001600160a01b0316146117555760405162461bcd60e51b8152600401610746906127e1565b6001600160a01b0382166117b75760405162461bcd60e51b8152602060048201526024808201527f4552433732313a207472616e7366657220746f20746865207a65726f206164646044820152637265737360e01b6064820152608401610746565b6117c48383836001611c52565b826001600160a01b03166117d782610cd4565b6001600160a01b0316146117fd5760405162461bcd60e51b8152600401610746906127e1565b600081815260046020908152604080832080546001600160a01b03199081169091556001600160a01b0387811680865260038552838620805460001901905590871680865283862080546001019055868652600290945282852080549092168417909155905184937fddf252ad1be2c89b69c2b068fc378daa952ba7f163c4a11628f55a4df523b3ef91a4505050565b600260085414156118e05760405162461bcd60e51b815260206004820152601f60248201527f5265656e7472616e637947756172643a207265656e7472616e742063616c6c006044820152606401610746565b6002600855565b6007546001600160a01b03163314610ad15760405162461bcd60e51b815260206004820181905260248201527f4f776e61626c653a2063616c6c6572206973206e6f7420746865206f776e65726044820152606401610746565b600780546001600160a01b038381166001600160a01b0319831681179093556040519116919082907f8be0079c531659141344cd1fd0a4f28419497f9722a3daafe3b4186f6b6457e090600090a35050565b816001600160a01b0316836001600160a01b031614156119f55760405162461bcd60e51b815260206004820152601960248201527f4552433732313a20617070726f766520746f2063616c6c6572000000000000006044820152606401610746565b6001600160a01b03838116600081815260056020908152604080832094871680845294825291829020805460ff191686151590811790915591519182527f17307eab39ab6107e8899845ad3d59bd9653f200f220920489ca2b5937696c31910160405180910390a3505050565b6110cb828260405180602001604052806000815250611d2a565b6000828152600260205260409020546001600160a01b0316611af75760405162461bcd60e51b815260206004820152602e60248201527f45524337323155524953746f726167653a2055524920736574206f66206e6f6e60448201526d32bc34b9ba32b73a103a37b5b2b760911b6064820152608401610746565b600082815260066020908152604090912082516107e7928401906121eb565b611b2184848461171c565b611b2d84848484611d5d565b61119b5760405162461bcd60e51b815260040161074690612826565b6060611b54826115d0565b60008281526006602052604081208054611b6d9061261b565b80601f0160208091040260200160405190810160405280929190818152602001828054611b999061261b565b8015611be65780601f10611bbb57610100808354040283529160200191611be6565b820191906000526020600020905b815481529060010190602001808311611bc957829003601f168201915b505050505090506000611c0460408051602081019091526000815290565b9050805160001415611c17575092915050565b815115611c49578082604051602001611c31929190612878565b60405160208183030381529060405292505050919050565b61171484611e6a565b6001600160a01b0384161561119b576000828152600f60205260409020546001600160a01b031615611cd45760405162461bcd60e51b815260206004820152602560248201527f63616e27742073656c6c206f72207472616e6665722072656e7465642070726f604482015264706572747960d81b6064820152608401610746565b6000828152600f6020908152604080832080546001600160e01b03191690555182815284917f4e06b4e7000e659094299b3533b47b6aa8ad048e95e872d23d1f4ee55af89cfe910160405180910390a350505050565b611d348383611ede565b611d416000848484611d5d565b6107e75760405162461bcd60e51b815260040161074690612826565b60006001600160a01b0384163b15611e5f57604051630a85bd0160e11b81526001600160a01b0385169063150b7a0290611da190339089908890889060040161289e565b602060405180830381600087803b158015611dbb57600080fd5b505af1925050508015611deb575060408051601f3d908101601f19168201909252611de8918101906128db565b60015b611e45573d808015611e19576040519150601f19603f3d011682016040523d82523d6000602084013e611e1e565b606091505b508051611e3d5760405162461bcd60e51b815260040161074690612826565b805181602001fd5b6001600160e01b031916630a85bd0160e11b149050611714565b506001949350505050565b6060611e75826115d0565b6000611e8c60408051602081019091526000815290565b90506000815111611eac5760405180602001604052806000815250611ed7565b80611eb684612077565b604051602001611ec7929190612878565b6040516020818303038152906040525b9392505050565b6001600160a01b038216611f345760405162461bcd60e51b815260206004820181905260248201527f4552433732313a206d696e7420746f20746865207a65726f20616464726573736044820152606401610746565b6000818152600260205260409020546001600160a01b031615611f995760405162461bcd60e51b815260206004820152601c60248201527f4552433732313a20746f6b656e20616c7265616479206d696e746564000000006044820152606401610746565b611fa7600083836001611c52565b6000818152600260205260409020546001600160a01b03161561200c5760405162461bcd60e51b815260206004820152601c60248201527f4552433732313a20746f6b656e20616c7265616479206d696e746564000000006044820152606401610746565b6001600160a01b038216600081815260036020908152604080832080546001019055848352600290915280822080546001600160a01b0319168417905551839291907fddf252ad1be2c89b69c2b068fc378daa952ba7f163c4a11628f55a4df523b3ef908290a45050565b6060600061208483612113565b60010190506000816001600160401b038111156120a3576120a361249b565b6040519080825280601f01601f1916602001820160405280156120cd576020820181803683370190505b5090508181016020015b600019016f181899199a1a9b1b9c1cb0b131b232b360811b600a86061a8153600a85049450846121065761210b565b6120d7565b509392505050565b60008072184f03e93ff9f4daa797ed6e38ed64bf6a1f0160401b83106121525772184f03e93ff9f4daa797ed6e38ed64bf6a1f0160401b830492506040015b6d04ee2d6d415b85acef8100000000831061217e576d04ee2d6d415b85acef8100000000830492506020015b662386f26fc10000831061219c57662386f26fc10000830492506010015b6305f5e10083106121b4576305f5e100830492506008015b61271083106121c857612710830492506004015b606483106121da576064830492506002015b600a83106106125760010192915050565b8280546121f79061261b565b90600052602060002090601f016020900481019282612219576000855561225f565b82601f1061223257805160ff191683800117855561225f565b8280016001018555821561225f579182015b8281111561225f578251825591602001919060010190612244565b5061226b92915061226f565b5090565b5b8082111561226b5760008155600101612270565b6001600160e01b03198116811461116657600080fd5b6000602082840312156122ac57600080fd5b8135611ed781612284565b60005b838110156122d25781810151838201526020016122ba565b8381111561119b5750506000910152565b600081518084526122fb8160208601602086016122b7565b601f01601f19169290920160200192915050565b602081526000611ed760208301846122e3565b60006020828403121561233457600080fd5b5035919050565b6001600160a01b038116811461116657600080fd5b6000806040838503121561236357600080fd5b823561236e8161233b565b946020939093013593505050565b60008060006060848603121561239157600080fd5b833561239c8161233b565b925060208401356123ac8161233b565b929592945050506040919091013590565b6000806000606084860312156123d257600080fd5b505081359360208301359350604090920135919050565b6000602082840312156123fb57600080fd5b8135611ed78161233b565b60008060006060848603121561241b57600080fd5b83359250602084013561242d8161233b565b915060408401356001600160401b038116811461244957600080fd5b809150509250925092565b801515811461116657600080fd5b6000806040838503121561247557600080fd5b82356124808161233b565b9150602083013561249081612454565b809150509250929050565b634e487b7160e01b600052604160045260246000fd5b60006001600160401b03808411156124cb576124cb61249b565b604051601f8501601f19908116603f011681019082821181831017156124f3576124f361249b565b8160405280935085815286868601111561250c57600080fd5b858560208301376000602087830101525050509392505050565b60006020828403121561253857600080fd5b81356001600160401b0381111561254e57600080fd5b8201601f8101841361255f57600080fd5b611714848235602084016124b1565b6000806000806080858703121561258457600080fd5b843561258f8161233b565b9350602085013561259f8161233b565b92506040850135915060608501356001600160401b038111156125c157600080fd5b8501601f810187136125d257600080fd5b6125e1878235602084016124b1565b91505092959194509250565b6000806040838503121561260057600080fd5b823561260b8161233b565b915060208301356124908161233b565b600181811c9082168061262f57607f821691505b6020821081141561265057634e487b7160e01b600052602260045260246000fd5b50919050565b6020808252602d908201527f4552433732313a2063616c6c6572206973206e6f7420746f6b656e206f776e6560408201526c1c881bdc88185c1c1c9bdd9959609a1b606082015260800190565b6020808252600e908201526d24b73b30b634b21039b2b73232b960911b604082015260600190565b6000602082840312156126dd57600080fd5b5051919050565b634e487b7160e01b600052601160045260246000fd5b60008261271757634e487b7160e01b600052601260045260246000fd5b500490565b6000816000190483118215151615612736576127366126e4565b500290565b60008282101561274d5761274d6126e4565b500390565b60006020828403121561276457600080fd5b8151611ed781612454565b60006001600160401b0380831681851681830481118215151615612795576127956126e4565b02949350505050565b60006001600160401b038083168185168083038211156127c0576127c06126e4565b01949350505050565b600082198211156127dc576127dc6126e4565b500190565b60208082526025908201527f4552433732313a207472616e736665722066726f6d20696e636f72726563742060408201526437bbb732b960d91b606082015260800190565b60208082526032908201527f4552433732313a207472616e7366657220746f206e6f6e20455243373231526560408201527131b2b4bb32b91034b6b83632b6b2b73a32b960711b606082015260800190565b6000835161288a8184602088016122b7565b8351908301906127c08183602088016122b7565b6001600160a01b03858116825284166020820152604081018390526080606082018190526000906128d1908301846122e3565b9695505050505050565b6000602082840312156128ed57600080fd5b8151611ed78161228456fea26469706673582212200e9a4f4928e479740d875c0631a6a2befd30baa727604a60823899c774be3d1964736f6c63430008090033",
  "linkReferences": {},
  "deployedLinkReferences": {}
}